{
  "contractName": "EthSwap",
  "abi": [
    {
      "inputs": [
        {
          "internalType": "contract Token",
          "name": "_token",
          "type": "address"
        }
      ],
      "payable": false,
      "stateMutability": "nonpayable",
      "type": "constructor",
      "signature": "constructor"
    },
    {
      "anonymous": false,
      "inputs": [
        {
          "indexed": false,
          "internalType": "address",
          "name": "account",
          "type": "address"
        },
        {
          "indexed": false,
          "internalType": "address",
          "name": "token",
          "type": "address"
        },
        {
          "indexed": false,
          "internalType": "uint256",
          "name": "amount",
          "type": "uint256"
        },
        {
          "indexed": false,
          "internalType": "uint256",
          "name": "rate",
          "type": "uint256"
        }
      ],
      "name": "TokenPurchased",
      "type": "event",
      "signature": "0x8daf503382665d950e449b86172be5222275c90f4ddf69c29fdaa8237a562a6d"
    },
    {
      "anonymous": false,
      "inputs": [
        {
          "indexed": false,
          "internalType": "address",
          "name": "account",
          "type": "address"
        },
        {
          "indexed": false,
          "internalType": "address",
          "name": "token",
          "type": "address"
        },
        {
          "indexed": false,
          "internalType": "uint256",
          "name": "amount",
          "type": "uint256"
        },
        {
          "indexed": false,
          "internalType": "uint256",
          "name": "rate",
          "type": "uint256"
        }
      ],
      "name": "TokenSold",
      "type": "event",
      "signature": "0xa8a7473f10e62cf9687e243de1c3ac8b3cbc3dd04b96826beb3a65b595385814"
    },
    {
      "constant": true,
      "inputs": [],
      "name": "name",
      "outputs": [
        {
          "internalType": "string",
          "name": "",
          "type": "string"
        }
      ],
      "payable": false,
      "stateMutability": "view",
      "type": "function",
      "signature": "0x06fdde03"
    },
    {
      "constant": true,
      "inputs": [],
      "name": "rate",
      "outputs": [
        {
          "internalType": "uint256",
          "name": "",
          "type": "uint256"
        }
      ],
      "payable": false,
      "stateMutability": "view",
      "type": "function",
      "signature": "0x2c4e722e"
    },
    {
      "constant": true,
      "inputs": [],
      "name": "token",
      "outputs": [
        {
          "internalType": "contract Token",
          "name": "",
          "type": "address"
        }
      ],
      "payable": false,
      "stateMutability": "view",
      "type": "function",
      "signature": "0xfc0c546a"
    },
    {
      "constant": false,
      "inputs": [],
      "name": "buyTokens",
      "outputs": [],
      "payable": true,
      "stateMutability": "payable",
      "type": "function",
      "signature": "0xd0febe4c"
    },
    {
      "constant": false,
      "inputs": [
        {
          "internalType": "uint256",
          "name": "_amount",
          "type": "uint256"
        }
      ],
      "name": "sellTokens",
      "outputs": [],
      "payable": false,
      "stateMutability": "nonpayable",
      "type": "function",
      "signature": "0x6c11bcd3"
    }
  ],
  "bytecode": "0x60c0604052601860808190527f4574685377617020496e7374616e742045786368616e6765000000000000000060a090815261003e9160009190610099565b50606460025534801561005057600080fd5b5060405161068f38038061068f8339818101604052602081101561007357600080fd5b5051600180546001600160a01b0319166001600160a01b03909216919091179055610134565b828054600181600116156101000203166002900490600052602060002090601f016020900481019282601f106100da57805160ff1916838001178555610107565b82800160010185558215610107579182015b828111156101075782518255916020019190600101906100ec565b50610113929150610117565b5090565b61013191905b80821115610113576000815560010161011d565b90565b61054c806101436000396000f3fe60806040526004361061004a5760003560e01c806306fdde031461004f5780632c4e722e146100d95780636c11bcd314610100578063d0febe4c1461012c578063fc0c546a14610134575b600080fd5b34801561005b57600080fd5b50610064610165565b6040805160208082528351818301528351919283929083019185019080838360005b8381101561009e578181015183820152602001610086565b50505050905090810190601f1680156100cb5780820380516001836020036101000a031916815260200191505b509250505060405180910390f35b3480156100e557600080fd5b506100ee6101f3565b60408051918252519081900360200190f35b34801561010c57600080fd5b5061012a6004803603602081101561012357600080fd5b50356101f9565b005b61012a6103a6565b34801561014057600080fd5b50610149610508565b604080516001600160a01b039092168252519081900360200190f35b6000805460408051602060026001851615610100026000190190941693909304601f810184900484028201840190925281815292918301828280156101eb5780601f106101c0576101008083540402835291602001916101eb565b820191906000526020600020905b8154815290600101906020018083116101ce57829003601f168201915b505050505081565b60025481565b600154604080516370a0823160e01b8152336004820152905183926001600160a01b0316916370a08231916024808301926020929190829003018186803b15801561024357600080fd5b505afa158015610257573d6000803e3d6000fd5b505050506040513d602081101561026d57600080fd5b5051101561027a57600080fd5b6000600254828161028757fe5b049050303181111561029857600080fd5b600154604080516323b872dd60e01b81523360048201523060248201526044810185905290516001600160a01b03909216916323b872dd916064808201926020929091908290030181600087803b1580156102f257600080fd5b505af1158015610306573d6000803e3d6000fd5b505050506040513d602081101561031c57600080fd5b5050604051339082156108fc029083906000818181858888f1935050505015801561034b573d6000803e3d6000fd5b50600154600254604080513381526001600160a01b0390931660208401528281018590526060830191909152517fa8a7473f10e62cf9687e243de1c3ac8b3cbc3dd04b96826beb3a65b5953858149181900360800190a15050565b600254600154604080516370a0823160e01b81523060048201529051349093029283926001600160a01b0316916370a08231916024808301926020929190829003018186803b1580156103f857600080fd5b505afa15801561040c573d6000803e3d6000fd5b505050506040513d602081101561042257600080fd5b5051101561042f57600080fd5b6001546040805163a9059cbb60e01b81523360048201526024810184905290516001600160a01b039092169163a9059cbb916044808201926020929091908290030181600087803b15801561048357600080fd5b505af1158015610497573d6000803e3d6000fd5b505050506040513d60208110156104ad57600080fd5b5050600154600254604080513381526001600160a01b0390931660208401528281018490526060830191909152517f8daf503382665d950e449b86172be5222275c90f4ddf69c29fdaa8237a562a6d9181900360800190a150565b6001546001600160a01b03168156fea265627a7a72315820e3126465ec9da6101aa050a5237f82dcd7cdbe543aa1b567261ad62921df373464736f6c63430005110032",
  "source": "pragma solidity ^0.5.0;\r\n\r\n\r\nimport \"./Token.sol\";\r\n\r\n\r\n/**\r\n * The EthSwap contract does this and that...\r\n */\r\ncontract EthSwap {\r\n\r\n\tstring public name  = \"EthSwap Instant Exchange\";\r\n\tToken public token;\r\n\tuint public rate = 100;\r\n\r\n\tevent TokenPurchased(\r\n    \taddress account,\r\n    \taddress token,\r\n    \tuint amount,\r\n    \tuint rate\r\n\t    );\r\n\r\n\tevent TokenSold(\r\n    \taddress account,\r\n    \taddress token,\r\n    \tuint amount,\r\n    \tuint rate\r\n\t    );\r\n\r\n\tconstructor(Token _token) public {\r\n\t\ttoken = _token;\r\n\t}\r\n\r\n\tfunction buyTokens() public payable {\r\n\t\t// Calculate the number of tokens to buy\r\n\t\tuint tokenAmount = msg.value * rate;\r\n\r\n\t\trequire (token.balanceOf(address(this)) >= tokenAmount);\r\n\r\n\t\t// Transfers tokens to the user\r\n\t\ttoken.transfer(msg.sender, tokenAmount);\r\n\r\n\t\t// Emit on event\r\n\t\temit TokenPurchased(msg.sender, address(token),\r\n\t\t                    tokenAmount, rate );\r\n\r\n\t}\r\n\tfunction sellTokens(uint _amount) public {\r\n\t\t// User cann't sell more than they have\r\n\t\trequire (token.balanceOf(msg.sender) >= _amount);\r\n\r\n\r\n\t\t// Calculate the amount of ether to redeem\r\n\t\tuint etherAmount = _amount / rate;\r\n\t\trequire(address(this).balance >= etherAmount);\r\n\r\n\t\t// Perform sale\r\n\t\ttoken.transferFrom(msg.sender, address(this), _amount);\r\n\r\n\t\tmsg.sender.transfer(etherAmount);\r\n\r\n\t\t// Emit on event\r\n\t\temit TokenSold(msg.sender, address(token),\r\n\t\t               _amount, rate);\r\n\r\n\t}\r\n\r\n}\r\n\r\n\r\n\r\n",
  "sourcePath": "/home/nitro/dappuniversity/study_eth_swap/src/contracts/EthSwap.sol",
  "compiler": {
    "name": "solc",
    "version": "0.5.17+commit.d19bba13.Emscripten.clang"
  },
  "schemaVersion": "3.0.2",
  "updatedAt": "2020-05-18T16:56:43.534Z",
  "devdoc": {
    "methods": {}
  },
  "userdoc": {
    "methods": {},
    "notice": "The EthSwap contract does this and that..."
  }
}