{
  "contractName": "EthSwap",
  "abi": [
    {
      "constant": true,
      "inputs": [],
      "name": "name",
      "outputs": [
        {
          "name": "",
          "type": "string"
        }
      ],
      "payable": false,
      "stateMutability": "view",
      "type": "function",
      "signature": "0x06fdde03"
    },
    {
      "constant": true,
      "inputs": [],
      "name": "rate",
      "outputs": [
        {
          "name": "",
          "type": "uint256"
        }
      ],
      "payable": false,
      "stateMutability": "view",
      "type": "function",
      "signature": "0x2c4e722e"
    },
    {
      "constant": true,
      "inputs": [],
      "name": "token",
      "outputs": [
        {
          "name": "",
          "type": "address"
        }
      ],
      "payable": false,
      "stateMutability": "view",
      "type": "function",
      "signature": "0xfc0c546a"
    },
    {
      "inputs": [
        {
          "name": "_token",
          "type": "address"
        }
      ],
      "payable": false,
      "stateMutability": "nonpayable",
      "type": "constructor",
      "signature": "constructor"
    },
    {
      "constant": false,
      "inputs": [],
      "name": "buyTokens",
      "outputs": [],
      "payable": true,
      "stateMutability": "payable",
      "type": "function",
      "signature": "0xd0febe4c"
    }
  ],
  "bytecode": "0x60c0604052601860808190527f4574685377617020496e7374616e742045786368616e6765000000000000000060a090815261003e9160009190610096565b50606460025534801561005057600080fd5b5060405160208061042c8339810180604052602081101561007057600080fd5b505160018054600160a060020a031916600160a060020a03909216919091179055610131565b828054600181600116156101000203166002900490600052602060002090601f016020900481019282601f106100d757805160ff1916838001178555610104565b82800160010185558215610104579182015b828111156101045782518255916020019190600101906100e9565b50610110929150610114565b5090565b61012e91905b80821115610110576000815560010161011a565b90565b6102ec806101406000396000f3fe6080604052600436106100615763ffffffff7c010000000000000000000000000000000000000000000000000000000060003504166306fdde0381146100665780632c4e722e146100f0578063d0febe4c14610117578063fc0c546a14610121575b600080fd5b34801561007257600080fd5b5061007b61015f565b6040805160208082528351818301528351919283929083019185019080838360005b838110156100b557818101518382015260200161009d565b50505050905090810190601f1680156100e25780820380516001836020036101000a031916815260200191505b509250505060405180910390f35b3480156100fc57600080fd5b506101056101ed565b60408051918252519081900360200190f35b61011f6101f3565b005b34801561012d57600080fd5b506101366102a4565b6040805173ffffffffffffffffffffffffffffffffffffffff9092168252519081900360200190f35b6000805460408051602060026001851615610100026000190190941693909304601f810184900484028201840190925281815292918301828280156101e55780601f106101ba576101008083540402835291602001916101e5565b820191906000526020600020905b8154815290600101906020018083116101c857829003601f168201915b505050505081565b60025481565b600254600154604080517fa9059cbb00000000000000000000000000000000000000000000000000000000815233600482015234909302602484018190529051909273ffffffffffffffffffffffffffffffffffffffff9092169163a9059cbb9160448083019260209291908290030181600087803b15801561027557600080fd5b505af1158015610289573d6000803e3d6000fd5b505050506040513d602081101561029f57600080fd5b505050565b60015473ffffffffffffffffffffffffffffffffffffffff168156fea165627a7a7230582068b013d7659ba9d0abd9bffbf8429789134006222037f62629d068901e579f880029",
  "source": "pragma solidity ^0.5.0;\r\n\r\n\r\nimport \"./Token.sol\";\r\n\r\n\r\n/**\r\n * The EthSwap contract does this and that...\r\n */\r\ncontract EthSwap {\r\n\r\n\tstring public name  = \"EthSwap Instant Exchange\";\r\n\tToken public token;\r\n\tuint public rate = 100;\r\n\r\n\tconstructor(Token _token) public {\r\n\t\ttoken = _token;\r\n\t}\r\n\r\n\tfunction buyTokens() public payable {\r\n\t\t// Calculate the number of tokens to buy\r\n\t\tuint tokenAmount = msg.value * rate;\r\n\t\ttoken.transfer(msg.sender, tokenAmount);\r\n\t}\r\n}\r\n\r\n\r\n\r\n",
  "sourcePath": "/home/nitro/dappuniversity/study_eth_swap/src/contracts/EthSwap.sol",
  "compiler": {
    "name": "solc",
    "version": "0.5.0+commit.1d4f565a.Emscripten.clang"
  },
  "schemaVersion": "3.0.2",
  "updatedAt": "2020-05-18T12:18:04.601Z",
  "devdoc": {
    "methods": {}
  },
  "userdoc": {
    "methods": {},
    "notice": "The EthSwap contract does this and that...\r"
  }
}